{
  "transactions": [
    {
      "hash": "0x07cfd5aaff084b3d0d1c47cd7a8f9e64847a69652bfa7e91cdd561795dab25a0",
      "transactionType": "CALL",
      "contractName": null,
      "contractAddress": "0x142f7bd56cf9fb568484f84424a6ee5fa3f81be3",
      "function": "reserveMarkkinat()",
      "arguments": [],
      "transaction": {
        "from": "0xee53d67596baf6c437d399493ac0499a1459c626",
        "to": "0x142f7bd56cf9fb568484f84424a6ee5fa3f81be3",
        "gas": "0xdd341",
        "value": "0x0",
        "input": "0x1b7e5038",
        "nonce": "0x0",
        "chainId": "0xaa36a7"
      },
      "additionalContracts": [],
      "isFixedGasLimit": false
    },
    {
      "hash": "0x09569535fdb435a09b356c96d57aa4d2efee2584ba2af55cab28453a460bb30e",
      "transactionType": "CALL",
      "contractName": null,
      "contractAddress": "0x142f7bd56cf9fb568484f84424a6ee5fa3f81be3",
      "function": "safeTransferFrom(address,address,uint256)",
      "arguments": [
        "0xee53D67596baf6c437D399493Ac0499A1459c626",
        "0x17e8F7fAD364dd0F32FbCCF5c6704eeb70a75F97",
        "2"
      ],
      "transaction": {
        "from": "0xee53d67596baf6c437d399493ac0499a1459c626",
        "to": "0x142f7bd56cf9fb568484f84424a6ee5fa3f81be3",
        "gas": "0x16675",
        "value": "0x0",
        "input": "0x42842e0e000000000000000000000000ee53d67596baf6c437d399493ac0499a1459c62600000000000000000000000017e8f7fad364dd0f32fbccf5c6704eeb70a75f970000000000000000000000000000000000000000000000000000000000000002",
        "nonce": "0x1",
        "chainId": "0xaa36a7"
      },
      "additionalContracts": [],
      "isFixedGasLimit": false
    },
    {
      "hash": "0xc167b40451d7c05e32bf7b39791f1722d02f041d9ccf9a8e08c7ce8f220036e2",
      "transactionType": "CALL",
      "contractName": null,
      "contractAddress": "0x142f7bd56cf9fb568484f84424a6ee5fa3f81be3",
      "function": "safeTransferFrom(address,address,uint256)",
      "arguments": [
        "0xee53D67596baf6c437D399493Ac0499A1459c626",
        "0xe2Ff6a5D1Bf8D9eEB740045E1E95C2AF86438Cf3",
        "3"
      ],
      "transaction": {
        "from": "0xee53d67596baf6c437d399493ac0499a1459c626",
        "to": "0x142f7bd56cf9fb568484f84424a6ee5fa3f81be3",
        "gas": "0x16675",
        "value": "0x0",
        "input": "0x42842e0e000000000000000000000000ee53d67596baf6c437d399493ac0499a1459c626000000000000000000000000e2ff6a5d1bf8d9eeb740045e1e95c2af86438cf30000000000000000000000000000000000000000000000000000000000000003",
        "nonce": "0x2",
        "chainId": "0xaa36a7"
      },
      "additionalContracts": [],
      "isFixedGasLimit": false
    },
    {
      "hash": "0x6601b8cd8fe0a0640a023c4b8197ceba29443cba40ad9721b74821569d257a99",
      "transactionType": "CALL",
      "contractName": null,
      "contractAddress": "0x142f7bd56cf9fb568484f84424a6ee5fa3f81be3",
      "function": "safeTransferFrom(address,address,uint256)",
      "arguments": [
        "0xee53D67596baf6c437D399493Ac0499A1459c626",
        "0x8db97C7cEcE249c2b98bDC0226Cc4C2A57BF52FC",
        "4"
      ],
      "transaction": {
        "from": "0xee53d67596baf6c437d399493ac0499a1459c626",
        "to": "0x142f7bd56cf9fb568484f84424a6ee5fa3f81be3",
        "gas": "0x16675",
        "value": "0x0",
        "input": "0x42842e0e000000000000000000000000ee53d67596baf6c437d399493ac0499a1459c6260000000000000000000000008db97c7cece249c2b98bdc0226cc4c2a57bf52fc0000000000000000000000000000000000000000000000000000000000000004",
        "nonce": "0x3",
        "chainId": "0xaa36a7"
      },
      "additionalContracts": [],
      "isFixedGasLimit": false
    }
  ],
  "receipts": [
    {
      "status": "0x1",
      "cumulativeGasUsed": "0x3915d4",
      "logs": [
        {
          "address": "0x142f7bd56cf9fb568484f84424a6ee5fa3f81be3",
          "topics": [
            "0xddf252ad1be2c89b69c2b068fc378daa952ba7f163c4a11628f55a4df523b3ef",
            "0x0000000000000000000000000000000000000000000000000000000000000000",
            "0x000000000000000000000000ee53d67596baf6c437d399493ac0499a1459c626",
            "0x0000000000000000000000000000000000000000000000000000000000000000"
          ],
          "data": "0x",
          "blockHash": "0x8d8d89e1644377b4eb784530698cb6424b0b582e0fab923e5c406689f2c5b72a",
          "blockNumber": "0x5956e5",
          "transactionHash": "0x07cfd5aaff084b3d0d1c47cd7a8f9e64847a69652bfa7e91cdd561795dab25a0",
          "transactionIndex": "0x1b",
          "logIndex": "0x34",
          "removed": false
        },
        {
          "address": "0x142f7bd56cf9fb568484f84424a6ee5fa3f81be3",
          "topics": [
            "0xddf252ad1be2c89b69c2b068fc378daa952ba7f163c4a11628f55a4df523b3ef",
            "0x0000000000000000000000000000000000000000000000000000000000000000",
            "0x000000000000000000000000ee53d67596baf6c437d399493ac0499a1459c626",
            "0x0000000000000000000000000000000000000000000000000000000000000001"
          ],
          "data": "0x",
          "blockHash": "0x8d8d89e1644377b4eb784530698cb6424b0b582e0fab923e5c406689f2c5b72a",
          "blockNumber": "0x5956e5",
          "transactionHash": "0x07cfd5aaff084b3d0d1c47cd7a8f9e64847a69652bfa7e91cdd561795dab25a0",
          "transactionIndex": "0x1b",
          "logIndex": "0x35",
          "removed": false
        },
        {
          "address": "0x142f7bd56cf9fb568484f84424a6ee5fa3f81be3",
          "topics": [
            "0xddf252ad1be2c89b69c2b068fc378daa952ba7f163c4a11628f55a4df523b3ef",
            "0x0000000000000000000000000000000000000000000000000000000000000000",
            "0x000000000000000000000000ee53d67596baf6c437d399493ac0499a1459c626",
            "0x0000000000000000000000000000000000000000000000000000000000000002"
          ],
          "data": "0x",
          "blockHash": "0x8d8d89e1644377b4eb784530698cb6424b0b582e0fab923e5c406689f2c5b72a",
          "blockNumber": "0x5956e5",
          "transactionHash": "0x07cfd5aaff084b3d0d1c47cd7a8f9e64847a69652bfa7e91cdd561795dab25a0",
          "transactionIndex": "0x1b",
          "logIndex": "0x36",
          "removed": false
        },
        {
          "address": "0x142f7bd56cf9fb568484f84424a6ee5fa3f81be3",
          "topics": [
            "0xddf252ad1be2c89b69c2b068fc378daa952ba7f163c4a11628f55a4df523b3ef",
            "0x0000000000000000000000000000000000000000000000000000000000000000",
            "0x000000000000000000000000ee53d67596baf6c437d399493ac0499a1459c626",
            "0x0000000000000000000000000000000000000000000000000000000000000003"
          ],
          "data": "0x",
          "blockHash": "0x8d8d89e1644377b4eb784530698cb6424b0b582e0fab923e5c406689f2c5b72a",
          "blockNumber": "0x5956e5",
          "transactionHash": "0x07cfd5aaff084b3d0d1c47cd7a8f9e64847a69652bfa7e91cdd561795dab25a0",
          "transactionIndex": "0x1b",
          "logIndex": "0x37",
          "removed": false
        },
        {
          "address": "0x142f7bd56cf9fb568484f84424a6ee5fa3f81be3",
          "topics": [
            "0xddf252ad1be2c89b69c2b068fc378daa952ba7f163c4a11628f55a4df523b3ef",
            "0x0000000000000000000000000000000000000000000000000000000000000000",
            "0x000000000000000000000000ee53d67596baf6c437d399493ac0499a1459c626",
            "0x0000000000000000000000000000000000000000000000000000000000000004"
          ],
          "data": "0x",
          "blockHash": "0x8d8d89e1644377b4eb784530698cb6424b0b582e0fab923e5c406689f2c5b72a",
          "blockNumber": "0x5956e5",
          "transactionHash": "0x07cfd5aaff084b3d0d1c47cd7a8f9e64847a69652bfa7e91cdd561795dab25a0",
          "transactionIndex": "0x1b",
          "logIndex": "0x38",
          "removed": false
        },
        {
          "address": "0x142f7bd56cf9fb568484f84424a6ee5fa3f81be3",
          "topics": [
            "0xddf252ad1be2c89b69c2b068fc378daa952ba7f163c4a11628f55a4df523b3ef",
            "0x0000000000000000000000000000000000000000000000000000000000000000",
            "0x000000000000000000000000ee53d67596baf6c437d399493ac0499a1459c626",
            "0x0000000000000000000000000000000000000000000000000000000000000005"
          ],
          "data": "0x",
          "blockHash": "0x8d8d89e1644377b4eb784530698cb6424b0b582e0fab923e5c406689f2c5b72a",
          "blockNumber": "0x5956e5",
          "transactionHash": "0x07cfd5aaff084b3d0d1c47cd7a8f9e64847a69652bfa7e91cdd561795dab25a0",
          "transactionIndex": "0x1b",
          "logIndex": "0x39",
          "removed": false
        },
        {
          "address": "0x142f7bd56cf9fb568484f84424a6ee5fa3f81be3",
          "topics": [
            "0xddf252ad1be2c89b69c2b068fc378daa952ba7f163c4a11628f55a4df523b3ef",
            "0x0000000000000000000000000000000000000000000000000000000000000000",
            "0x000000000000000000000000ee53d67596baf6c437d399493ac0499a1459c626",
            "0x0000000000000000000000000000000000000000000000000000000000000006"
          ],
          "data": "0x",
          "blockHash": "0x8d8d89e1644377b4eb784530698cb6424b0b582e0fab923e5c406689f2c5b72a",
          "blockNumber": "0x5956e5",
          "transactionHash": "0x07cfd5aaff084b3d0d1c47cd7a8f9e64847a69652bfa7e91cdd561795dab25a0",
          "transactionIndex": "0x1b",
          "logIndex": "0x3a",
          "removed": false
        },
        {
          "address": "0x142f7bd56cf9fb568484f84424a6ee5fa3f81be3",
          "topics": [
            "0xddf252ad1be2c89b69c2b068fc378daa952ba7f163c4a11628f55a4df523b3ef",
            "0x0000000000000000000000000000000000000000000000000000000000000000",
            "0x000000000000000000000000ee53d67596baf6c437d399493ac0499a1459c626",
            "0x0000000000000000000000000000000000000000000000000000000000000007"
          ],
          "data": "0x",
          "blockHash": "0x8d8d89e1644377b4eb784530698cb6424b0b582e0fab923e5c406689f2c5b72a",
          "blockNumber": "0x5956e5",
          "transactionHash": "0x07cfd5aaff084b3d0d1c47cd7a8f9e64847a69652bfa7e91cdd561795dab25a0",
          "transactionIndex": "0x1b",
          "logIndex": "0x3b",
          "removed": false
        },
        {
          "address": "0x142f7bd56cf9fb568484f84424a6ee5fa3f81be3",
          "topics": [
            "0xddf252ad1be2c89b69c2b068fc378daa952ba7f163c4a11628f55a4df523b3ef",
            "0x0000000000000000000000000000000000000000000000000000000000000000",
            "0x000000000000000000000000ee53d67596baf6c437d399493ac0499a1459c626",
            "0x0000000000000000000000000000000000000000000000000000000000000008"
          ],
          "data": "0x",
          "blockHash": "0x8d8d89e1644377b4eb784530698cb6424b0b582e0fab923e5c406689f2c5b72a",
          "blockNumber": "0x5956e5",
          "transactionHash": "0x07cfd5aaff084b3d0d1c47cd7a8f9e64847a69652bfa7e91cdd561795dab25a0",
          "transactionIndex": "0x1b",
          "logIndex": "0x3c",
          "removed": false
        },
        {
          "address": "0x142f7bd56cf9fb568484f84424a6ee5fa3f81be3",
          "topics": [
            "0xddf252ad1be2c89b69c2b068fc378daa952ba7f163c4a11628f55a4df523b3ef",
            "0x0000000000000000000000000000000000000000000000000000000000000000",
            "0x000000000000000000000000ee53d67596baf6c437d399493ac0499a1459c626",
            "0x0000000000000000000000000000000000000000000000000000000000000009"
          ],
          "data": "0x",
          "blockHash": "0x8d8d89e1644377b4eb784530698cb6424b0b582e0fab923e5c406689f2c5b72a",
          "blockNumber": "0x5956e5",
          "transactionHash": "0x07cfd5aaff084b3d0d1c47cd7a8f9e64847a69652bfa7e91cdd561795dab25a0",
          "transactionIndex": "0x1b",
          "logIndex": "0x3d",
          "removed": false
        },
        {
          "address": "0x142f7bd56cf9fb568484f84424a6ee5fa3f81be3",
          "topics": [
            "0xddf252ad1be2c89b69c2b068fc378daa952ba7f163c4a11628f55a4df523b3ef",
            "0x0000000000000000000000000000000000000000000000000000000000000000",
            "0x000000000000000000000000ee53d67596baf6c437d399493ac0499a1459c626",
            "0x000000000000000000000000000000000000000000000000000000000000000a"
          ],
          "data": "0x",
          "blockHash": "0x8d8d89e1644377b4eb784530698cb6424b0b582e0fab923e5c406689f2c5b72a",
          "blockNumber": "0x5956e5",
          "transactionHash": "0x07cfd5aaff084b3d0d1c47cd7a8f9e64847a69652bfa7e91cdd561795dab25a0",
          "transactionIndex": "0x1b",
          "logIndex": "0x3e",
          "removed": false
        },
        {
          "address": "0x142f7bd56cf9fb568484f84424a6ee5fa3f81be3",
          "topics": [
            "0xddf252ad1be2c89b69c2b068fc378daa952ba7f163c4a11628f55a4df523b3ef",
            "0x0000000000000000000000000000000000000000000000000000000000000000",
            "0x000000000000000000000000ee53d67596baf6c437d399493ac0499a1459c626",
            "0x000000000000000000000000000000000000000000000000000000000000000b"
          ],
          "data": "0x",
          "blockHash": "0x8d8d89e1644377b4eb784530698cb6424b0b582e0fab923e5c406689f2c5b72a",
          "blockNumber": "0x5956e5",
          "transactionHash": "0x07cfd5aaff084b3d0d1c47cd7a8f9e64847a69652bfa7e91cdd561795dab25a0",
          "transactionIndex": "0x1b",
          "logIndex": "0x3f",
          "removed": false
        },
        {
          "address": "0x142f7bd56cf9fb568484f84424a6ee5fa3f81be3",
          "topics": [
            "0xddf252ad1be2c89b69c2b068fc378daa952ba7f163c4a11628f55a4df523b3ef",
            "0x0000000000000000000000000000000000000000000000000000000000000000",
            "0x000000000000000000000000ee53d67596baf6c437d399493ac0499a1459c626",
            "0x000000000000000000000000000000000000000000000000000000000000000c"
          ],
          "data": "0x",
          "blockHash": "0x8d8d89e1644377b4eb784530698cb6424b0b582e0fab923e5c406689f2c5b72a",
          "blockNumber": "0x5956e5",
          "transactionHash": "0x07cfd5aaff084b3d0d1c47cd7a8f9e64847a69652bfa7e91cdd561795dab25a0",
          "transactionIndex": "0x1b",
          "logIndex": "0x40",
          "removed": false
        },
        {
          "address": "0x142f7bd56cf9fb568484f84424a6ee5fa3f81be3",
          "topics": [
            "0xddf252ad1be2c89b69c2b068fc378daa952ba7f163c4a11628f55a4df523b3ef",
            "0x0000000000000000000000000000000000000000000000000000000000000000",
            "0x000000000000000000000000ee53d67596baf6c437d399493ac0499a1459c626",
            "0x000000000000000000000000000000000000000000000000000000000000000d"
          ],
          "data": "0x",
          "blockHash": "0x8d8d89e1644377b4eb784530698cb6424b0b582e0fab923e5c406689f2c5b72a",
          "blockNumber": "0x5956e5",
          "transactionHash": "0x07cfd5aaff084b3d0d1c47cd7a8f9e64847a69652bfa7e91cdd561795dab25a0",
          "transactionIndex": "0x1b",
          "logIndex": "0x41",
          "removed": false
        },
        {
          "address": "0x142f7bd56cf9fb568484f84424a6ee5fa3f81be3",
          "topics": [
            "0xddf252ad1be2c89b69c2b068fc378daa952ba7f163c4a11628f55a4df523b3ef",
            "0x0000000000000000000000000000000000000000000000000000000000000000",
            "0x000000000000000000000000ee53d67596baf6c437d399493ac0499a1459c626",
            "0x000000000000000000000000000000000000000000000000000000000000000e"
          ],
          "data": "0x",
          "blockHash": "0x8d8d89e1644377b4eb784530698cb6424b0b582e0fab923e5c406689f2c5b72a",
          "blockNumber": "0x5956e5",
          "transactionHash": "0x07cfd5aaff084b3d0d1c47cd7a8f9e64847a69652bfa7e91cdd561795dab25a0",
          "transactionIndex": "0x1b",
          "logIndex": "0x42",
          "removed": false
        },
        {
          "address": "0x142f7bd56cf9fb568484f84424a6ee5fa3f81be3",
          "topics": [
            "0xddf252ad1be2c89b69c2b068fc378daa952ba7f163c4a11628f55a4df523b3ef",
            "0x0000000000000000000000000000000000000000000000000000000000000000",
            "0x000000000000000000000000ee53d67596baf6c437d399493ac0499a1459c626",
            "0x000000000000000000000000000000000000000000000000000000000000000f"
          ],
          "data": "0x",
          "blockHash": "0x8d8d89e1644377b4eb784530698cb6424b0b582e0fab923e5c406689f2c5b72a",
          "blockNumber": "0x5956e5",
          "transactionHash": "0x07cfd5aaff084b3d0d1c47cd7a8f9e64847a69652bfa7e91cdd561795dab25a0",
          "transactionIndex": "0x1b",
          "logIndex": "0x43",
          "removed": false
        },
        {
          "address": "0x142f7bd56cf9fb568484f84424a6ee5fa3f81be3",
          "topics": [
            "0xddf252ad1be2c89b69c2b068fc378daa952ba7f163c4a11628f55a4df523b3ef",
            "0x0000000000000000000000000000000000000000000000000000000000000000",
            "0x000000000000000000000000ee53d67596baf6c437d399493ac0499a1459c626",
            "0x0000000000000000000000000000000000000000000000000000000000000010"
          ],
          "data": "0x",
          "blockHash": "0x8d8d89e1644377b4eb784530698cb6424b0b582e0fab923e5c406689f2c5b72a",
          "blockNumber": "0x5956e5",
          "transactionHash": "0x07cfd5aaff084b3d0d1c47cd7a8f9e64847a69652bfa7e91cdd561795dab25a0",
          "transactionIndex": "0x1b",
          "logIndex": "0x44",
          "removed": false
        },
        {
          "address": "0x142f7bd56cf9fb568484f84424a6ee5fa3f81be3",
          "topics": [
            "0xddf252ad1be2c89b69c2b068fc378daa952ba7f163c4a11628f55a4df523b3ef",
            "0x0000000000000000000000000000000000000000000000000000000000000000",
            "0x000000000000000000000000ee53d67596baf6c437d399493ac0499a1459c626",
            "0x0000000000000000000000000000000000000000000000000000000000000011"
          ],
          "data": "0x",
          "blockHash": "0x8d8d89e1644377b4eb784530698cb6424b0b582e0fab923e5c406689f2c5b72a",
          "blockNumber": "0x5956e5",
          "transactionHash": "0x07cfd5aaff084b3d0d1c47cd7a8f9e64847a69652bfa7e91cdd561795dab25a0",
          "transactionIndex": "0x1b",
          "logIndex": "0x45",
          "removed": false
        },
        {
          "address": "0x142f7bd56cf9fb568484f84424a6ee5fa3f81be3",
          "topics": [
            "0xddf252ad1be2c89b69c2b068fc378daa952ba7f163c4a11628f55a4df523b3ef",
            "0x0000000000000000000000000000000000000000000000000000000000000000",
            "0x000000000000000000000000ee53d67596baf6c437d399493ac0499a1459c626",
            "0x0000000000000000000000000000000000000000000000000000000000000012"
          ],
          "data": "0x",
          "blockHash": "0x8d8d89e1644377b4eb784530698cb6424b0b582e0fab923e5c406689f2c5b72a",
          "blockNumber": "0x5956e5",
          "transactionHash": "0x07cfd5aaff084b3d0d1c47cd7a8f9e64847a69652bfa7e91cdd561795dab25a0",
          "transactionIndex": "0x1b",
          "logIndex": "0x46",
          "removed": false
        },
        {
          "address": "0x142f7bd56cf9fb568484f84424a6ee5fa3f81be3",
          "topics": [
            "0xddf252ad1be2c89b69c2b068fc378daa952ba7f163c4a11628f55a4df523b3ef",
            "0x0000000000000000000000000000000000000000000000000000000000000000",
            "0x000000000000000000000000ee53d67596baf6c437d399493ac0499a1459c626",
            "0x0000000000000000000000000000000000000000000000000000000000000013"
          ],
          "data": "0x",
          "blockHash": "0x8d8d89e1644377b4eb784530698cb6424b0b582e0fab923e5c406689f2c5b72a",
          "blockNumber": "0x5956e5",
          "transactionHash": "0x07cfd5aaff084b3d0d1c47cd7a8f9e64847a69652bfa7e91cdd561795dab25a0",
          "transactionIndex": "0x1b",
          "logIndex": "0x47",
          "removed": false
        },
        {
          "address": "0x142f7bd56cf9fb568484f84424a6ee5fa3f81be3",
          "topics": [
            "0xddf252ad1be2c89b69c2b068fc378daa952ba7f163c4a11628f55a4df523b3ef",
            "0x0000000000000000000000000000000000000000000000000000000000000000",
            "0x000000000000000000000000ee53d67596baf6c437d399493ac0499a1459c626",
            "0x0000000000000000000000000000000000000000000000000000000000000014"
          ],
          "data": "0x",
          "blockHash": "0x8d8d89e1644377b4eb784530698cb6424b0b582e0fab923e5c406689f2c5b72a",
          "blockNumber": "0x5956e5",
          "transactionHash": "0x07cfd5aaff084b3d0d1c47cd7a8f9e64847a69652bfa7e91cdd561795dab25a0",
          "transactionIndex": "0x1b",
          "logIndex": "0x48",
          "removed": false
        }
      ],
      "logsBloom": "0x24000000100000000040004000800000000002000000000000000000000000000000000040000200000000000000000000003000070481000020000000240000000030000000000800000028000000000002000000040000000000000002000008000000020000040000000000000800000000004100000000000010040000008080000400000800010000000000041008001900000400000000000000000000000000000000000020000100000000000000000000800060002000080400400040001002000000000400000000000000002000008000000000000100000060220000000200000000000000000000000000000000008000040000000000800000",
      "type": "0x2",
      "transactionHash": "0x07cfd5aaff084b3d0d1c47cd7a8f9e64847a69652bfa7e91cdd561795dab25a0",
      "transactionIndex": "0x1b",
      "blockHash": "0x8d8d89e1644377b4eb784530698cb6424b0b582e0fab923e5c406689f2c5b72a",
      "blockNumber": "0x5956e5",
      "gasUsed": "0x97401",
      "effectiveGasPrice": "0x74d5ef089",
      "from": "0xee53d67596baf6c437d399493ac0499a1459c626",
      "to": "0x142f7bd56cf9fb568484f84424a6ee5fa3f81be3",
      "contractAddress": null
    },
    {
      "status": "0x1",
      "cumulativeGasUsed": "0x3a5cf6",
      "logs": [
        {
          "address": "0x142f7bd56cf9fb568484f84424a6ee5fa3f81be3",
          "topics": [
            "0xddf252ad1be2c89b69c2b068fc378daa952ba7f163c4a11628f55a4df523b3ef",
            "0x000000000000000000000000ee53d67596baf6c437d399493ac0499a1459c626",
            "0x00000000000000000000000017e8f7fad364dd0f32fbccf5c6704eeb70a75f97",
            "0x0000000000000000000000000000000000000000000000000000000000000002"
          ],
          "data": "0x",
          "blockHash": "0x8d8d89e1644377b4eb784530698cb6424b0b582e0fab923e5c406689f2c5b72a",
          "blockNumber": "0x5956e5",
          "transactionHash": "0x09569535fdb435a09b356c96d57aa4d2efee2584ba2af55cab28453a460bb30e",
          "transactionIndex": "0x1d",
          "logIndex": "0x49",
          "removed": false
        }
      ],
      "logsBloom": "0x04000000000000000000000000000000000000000000000000000000000000000000000000000000000000000000000000000000410001000000000000000000000000000000000000000028000000000800000000000000000000000000000000000000000000040000000000000000000000000100000000000010000000008000000000000000000000000000000000000000000000000000000000000000000000000000000000000100000000000000000000000000000000000000000000000002000000000000000000000000000000000000000080000000000000000000000000000000000000000000000000000000008000000000000000000000",
      "type": "0x2",
      "transactionHash": "0x09569535fdb435a09b356c96d57aa4d2efee2584ba2af55cab28453a460bb30e",
      "transactionIndex": "0x1d",
      "blockHash": "0x8d8d89e1644377b4eb784530698cb6424b0b582e0fab923e5c406689f2c5b72a",
      "blockNumber": "0x5956e5",
      "gasUsed": "0xf51a",
      "effectiveGasPrice": "0x74d5ef089",
      "from": "0xee53d67596baf6c437d399493ac0499a1459c626",
      "to": "0x142f7bd56cf9fb568484f84424a6ee5fa3f81be3",
      "contractAddress": null
    },
    {
      "status": "0x1",
      "cumulativeGasUsed": "0x3b5210",
      "logs": [
        {
          "address": "0x142f7bd56cf9fb568484f84424a6ee5fa3f81be3",
          "topics": [
            "0xddf252ad1be2c89b69c2b068fc378daa952ba7f163c4a11628f55a4df523b3ef",
            "0x000000000000000000000000ee53d67596baf6c437d399493ac0499a1459c626",
            "0x000000000000000000000000e2ff6a5d1bf8d9eeb740045e1e95c2af86438cf3",
            "0x0000000000000000000000000000000000000000000000000000000000000003"
          ],
          "data": "0x",
          "blockHash": "0x8d8d89e1644377b4eb784530698cb6424b0b582e0fab923e5c406689f2c5b72a",
          "blockNumber": "0x5956e5",
          "transactionHash": "0xc167b40451d7c05e32bf7b39791f1722d02f041d9ccf9a8e08c7ce8f220036e2",
          "transactionIndex": "0x1e",
          "logIndex": "0x4a",
          "removed": false
        }
      ],
      "logsBloom": "0x00000000000000000000000000000000000000000000000000000000000000000000000000800000000000000000000000000000030001000000000000000000000000000000000000000028000000000000000000000000000000000000000000000000080000040000000000000100000000000100000000000010000000008000000000000000000000000000000000000000000000000000000000000000000000000000000000000000000000000000000000800000000000000000400000000002000000000000000000000000000000000000000000000000000000000000000000000000000000000000000000000000000000000000000000000000",
      "type": "0x2",
      "transactionHash": "0xc167b40451d7c05e32bf7b39791f1722d02f041d9ccf9a8e08c7ce8f220036e2",
      "transactionIndex": "0x1e",
      "blockHash": "0x8d8d89e1644377b4eb784530698cb6424b0b582e0fab923e5c406689f2c5b72a",
      "blockNumber": "0x5956e5",
      "gasUsed": "0xf51a",
      "effectiveGasPrice": "0x74d5ef089",
      "from": "0xee53d67596baf6c437d399493ac0499a1459c626",
      "to": "0x142f7bd56cf9fb568484f84424a6ee5fa3f81be3",
      "contractAddress": null
    },
    {
      "status": "0x1",
      "cumulativeGasUsed": "0x3c472a",
      "logs": [
        {
          "address": "0x142f7bd56cf9fb568484f84424a6ee5fa3f81be3",
          "topics": [
            "0xddf252ad1be2c89b69c2b068fc378daa952ba7f163c4a11628f55a4df523b3ef",
            "0x000000000000000000000000ee53d67596baf6c437d399493ac0499a1459c626",
            "0x0000000000000000000000008db97c7cece249c2b98bdc0226cc4c2a57bf52fc",
            "0x0000000000000000000000000000000000000000000000000000000000000004"
          ],
          "data": "0x",
          "blockHash": "0x8d8d89e1644377b4eb784530698cb6424b0b582e0fab923e5c406689f2c5b72a",
          "blockNumber": "0x5956e5",
          "transactionHash": "0x6601b8cd8fe0a0640a023c4b8197ceba29443cba40ad9721b74821569d257a99",
          "transactionIndex": "0x1f",
          "logIndex": "0x4b",
          "removed": false
        }
      ],
      "logsBloom": "0x00000000000000000000000000000000000000000000000000000000000000000000000000000000000000000000000000000000010001000000000000000000000000000000000000000028000000000000000000000000000000000000000008000000000000040000000000000000000000000100000000000010000000008000000000000000000000000000000000000000000000000000000000000000000000000000000000000000000000000000000000000000002000000000000000000002000000000000000000000000000000008000800000000000000000000000000000000000000000000000000000000001000000000080000000000000",
      "type": "0x2",
      "transactionHash": "0x6601b8cd8fe0a0640a023c4b8197ceba29443cba40ad9721b74821569d257a99",
      "transactionIndex": "0x1f",
      "blockHash": "0x8d8d89e1644377b4eb784530698cb6424b0b582e0fab923e5c406689f2c5b72a",
      "blockNumber": "0x5956e5",
      "gasUsed": "0xf51a",
      "effectiveGasPrice": "0x74d5ef089",
      "from": "0xee53d67596baf6c437d399493ac0499a1459c626",
      "to": "0x142f7bd56cf9fb568484f84424a6ee5fa3f81be3",
      "contractAddress": null
    }
  ],
  "libraries": [],
  "pending": [],
  "returns": {},
  "timestamp": 1715083291,
  "chain": 11155111,
  "commit": "cf3064e"
}